:020000040800F2
:100000009087002045010008BF1300080D0200087A
:10001000BD1300081F0300086B1700080000000054
:10002000000000000000000000000000191500089A
:100030002103000800000000970100081B150008BC
:100040005F0100085F0100085F0100085F01000810
:100050005F0100085F0100085F0100085F01000800
:100060005F0100085F0100085F0100085F010008F0
:100070005F0100085F0100085F0100085F010008E0
:100080005F0100085F0100085F0100085F010008D0
:100090005F0100085F0100085F0100085F010008C0
:1000A0005F0100085F0100085F0100085F010008B0
:1000B0005F0100085F0100085F0100085F010008A0
:1000C0005F0100085F0100085F0100085F01000890
:1000D0005F0100085F0100085F0100085F01000880
:1000E0005F0100085F0100085F0100085F01000870
:1000F0005F0100085F0100085F0100085F01000860
:100100005F0100085F0100085F0100085F0100084F
:100110005F0100085F010008D91500085F010008B1
:100120005F0100085F0100085F0100085F0100082F
:10013000DFF80CD000F0DCF8004800471503000899
:10014000908700200648804706480047FEE7FEE704
:10015000FEE7FEE7FEE7FEE7FEE7FEE7FEE7FEE777
:10016000D515000831010008EFF3108072B6704712
:1001700080F310887047324A1368012B04D04FF087
:10018000010313602F4A10602F4A11602F484FF06F
:10019000805101607047EFF3108272B62848016801
:1001A00091B14FF0000101602648016829B1EFF3D9
:1001B000098121E9F00F0068016023490968096895
:1001C000B1E8F00F81F3098882F310884EF0040E35
:1001D00070471D4908601B494FF00000086018492E
:1001E0004FF0010008601A481A49D0F8002041EA8F
:1001F0000201016015484FF0805101601648006807
:10020000006880F3088861B662B670471EF0040F7C
:100210000CBFEFF30880EFF3098020E9F00F40F8FE
:1002200004ED1EF0040F0CBF80F3088880F30988EA
:1002300000B502F04BFC5DF804EB4EF0040E704785
:10024000EC7E0020E07B0020E87B002004ED00E055
:1002500020ED00E00000FFFF08ED00E0D2B201E079
:1002600000F8012B491EFBD270470022F6E710B5BB
:1002700013460A4604461946FFF7F0FF204610BD14
:1002800010B5044604E00B7800F8013B03B1491CAB
:10029000521EF8D2204610BD421C10F8011B002946
:1002A000FBD1801A704730B505460020034600E0B8
:1002B0005B1C934205D2EC5CC85C201A01D1002C77
:1002C000F6D130BD30B50B46014600202022012476
:1002D00009E021FA02F59D4205D303FA02F5491B14
:1002E00004FA02F52844151EA2F10102F1DC30BD2A
:1002F000064C074D06E0E06840F0010394E8070073
:1003000098471034AC42F6D3FFF716FF4C7700083D
:100310006C77000880B503F037FD002080BDFEE754
:100320007047EFF3108072B6FEE700002DE9FC4F36
:1003300081465E48062381455D4808BF0523484441
:100340004FEAB022052A38BF4FEAB0230093594E36
:10035000594B4FF0000B4FF001084FF00F0E4FF0CC
:10036000000A00220C6834FA02F508BFBDE8FC8FD1
:1003700008FA02F52C4200F094804F68032F16D93A
:10038000112F26D0122F28D04C48874213D04C482A
:10039000874210D04B4887420DD04B4887420AD045
:1003A0004A48874207D04A48874204D022E0DFE823
:1003B00007F002181B1F8C6844B1012C14BFC9F848
:1003C0001450C9F810504FF0080A13E04FF0040A17
:1003D00010E0CC6804F1040A0CE0CC6804F10C0ACB
:1003E00008E0D1F80CA005E0CC6804F1080A01E0AF
:1003F0004FF0000A5C4648469C463346082A28BF10
:10040000203C28BF043006680EFA04F7BE430AFAFF
:1004100004F434430460C879C00602D41E4663461F
:100420003FE0584822F00306044600681E4440F0AE
:1004300001002060206800F001000190019F254F1D
:100440000BF00C000EFA00F4BE46F75927EA04043C
:10045000009F07FA00F0204346F80E004F681E4642
:10046000F802986854BF20EA050440EA0504634690
:10047000B460B802186854BF20EA050440EA0504D5
:100480001C60B803706854BF20EA050440EA050404
:100490007460F8034FF00F0E306854BFA843284330
:1004A00030600BF1040B01325CE700BF001C01401F
:1004B00000F8FEBF000401400C04014000001110D0
:1004C0000000121000002110000022100000311066
:1004D0000000321008FCFFFF002A08BF0904016178
:1004E0007047000001480068704700BF8883002003
:1004F00080B58F48016841F010010160032000F0D1
:100500006FF80F2000F004F800F020F8002080BD04
:1005100070B50D4E044630784FF47A71B1FBF0F0AF
:1005200090490968B1FBF0F000F02AFC01250F2C7E
:1005300008D838B94FF0FF3021460022002500F0DE
:1005400033F87460284670BD0000002082B00D486A
:100550000222016841F001010160016801F001011E
:1005600001910199416841F080514160406800F07B
:100570008050009000980448016862F31A6101609D
:1005800002B070471810024004000140002808D44F
:1005900000F01F01012202FA01F1024A400942F86B
:1005A0002010704700E100E0B0B5134B4FF0FF356D
:1005B0001B68C3F30223DC1E83F0070338BF00244B
:1005C000042B28BF042305FA03F3994305FA04F327
:1005D000A1409A431143BDE8B04001F0C7B800BF45
:1005E00005494FF6FF030A681A4060F30A220348E0
:1005F00010430860704700BF0CED00E00000FA05F2
:100600002DE9F843002800F09080884648490446C8
:10061000086800F0070040450AD2086820F007008B
:1006200040EA08000860086800F0070040457CD1F7
:1006300020685B4B8946810711D5410703D51968AE
:1006400041F4E0611960010703D5196841F4605174
:100650001960A1681A6822F0F00211431960C007FE
:100660002BD06068012804D153F8041C890309D4F5
:100670005BE053F8041C022802D1890102D454E043
:10068000890752D519681D4621F0030108431860F7
:10069000FFF728FF064641F28837606829682B4635
:1006A00001F00C01B1EB800F07D0FFF71BFF801B9F
:1006B000B842F2D90320BDE8F883D9F8000000F071
:1006C000070040450DD9D9F8000020F0070040EAA6
:1006D0000800C9F80000D9F8000000F00700404504
:1006E00023D12068410705D5E1681A6822F4E06249
:1006F00011431960000706D52069196821F460517B
:1007000041EAC00018601C4600F030F82168094A30
:10071000C1F30311515CC840F34908600648006802
:10072000FFF7F6FE0020BDE8F8830120BDE8F8835E
:1007300000200240DA4D000804000020EA48184971
:1007400000680968084AC1F30221515CC84070473B
:10075000E548134900680968034AC1F3C221515CA6
:10076000C840704708000020EA4D000810B50C4949
:100770000C480A6802F00C03082B07D1C2F383432C
:1007800009A4E35CD20302D40C48584310BD0968A5
:1007900009A2C1F34041515C5843B0FBF1F010BDD8
:1007A0000410024000127A0002030405060708093B
:1007B0000A0B0C0D0E0F10100102000000093D0085
:1007C0002DE9FC41002800F0CC8004460078C44E9E
:1007D000C0074AD0706800F00C00042817D0706879
:1007E00000F00C00082802D17068C0030FD46068C4
:1007F00098B1B0F5803F06D03168B0F5A02F21D177
:1008000041F480203060306840F4803020E030686F
:1008100080032AD5606840BBA3E0306820F48030B4
:100820003060306820F480203060FFF75BFE0546C2
:100830003068800319D5FFF755FE411B032064295A
:10084000F6D94AE121F480303060306820F480200D
:100850003060FFF747FE05463068800305D4FFF798
:1008600041FE401B6428F7D90AE1207880072CD587
:10087000706810F00C0F07D0706800F00C000828AA
:1008800009D17068C00306D43068800716D5206986
:10089000012813D065E021699248002900F0B58055
:1008A00001210160FFF71EFE05463068800705D470
:1008B000FFF718FE401B0228F7D9E1E060693168B4
:1008C00021F0F80141EAC0003060207800072ED501
:1008D000A06978B183480121C0F88014FFF702FEB7
:1008E0000546706A800715D4FFF7FCFD401B0228FF
:1008F000F7D9C5E07B480021C0F88014FFF7F2FD6E
:100900000546706A800712D5FFF7ECFD401B0228F0
:10091000F7D9B5E074484FF4FA510068B0FBF1F034
:10092000019000BF0198411E00280191F9D1207863
:10093000400719D4E769002F00F0CE80706800F0FE
:100940000C00082843D1012F0BD0216A706800F4F5
:1009500080328A4205D1616A00F47010884200F04A
:10096000BB800120BDE8FC81F069C0000BD4F069B8
:100970004FF0010840F08050F061F06900F08050C5
:100980000090009801E04FF00008584F3868C0050B
:100990000FD4386840F480703860FFF7A3FD054637
:1009A0003868C00505D4FFF79DFD401B6428F7D9C2
:1009B00066E0E068C8B3012805D0316A05284BD14C
:1009C00041F004003062306A40F001004AE04549DD
:1009D000002088460866FFF785FD0546022F0AD1EC
:1009E00047463068800157D5FFF77CFD411B032047
:1009F0000229F6D971E0306880016DD5FFF772FDEC
:100A0000411B03200229F6D967E000210160FFF7AE
:100A100069FD0546306880077FF557AFFFF762FD37
:100A2000411B03200229F5D957E0306A20F001006C
:100A30003062306A20F004003062FFF753FD054653
:100A400041F28837306A80071DD5FFF74BFD411B07
:100A50000320B942F6D940E021F001003062306A4B
:100A600020F004003062FFF73DFD054641F2883773
:100A7000306A800707D4FFF735FD401BB842F7D92D
:100A80000320BDE8FC81B8F1000F3FF453AFF069DB
:100A900020F08050F0614DE7206AB0F5803F05D12D
:100AA000A168726822F4003211437160616A0843E0
:100AB000716821F474110843706001203866FFF7F3
:100AC00011FD04463068800106D4FFF70BFD011BC1
:100AD00003200229F6D900E00020BDE8FC8100BF18
:100AE0000010024000004242080000200070004058
:100AF000F8B538B10446406A30B10020206104F1F5
:100B0000140007E001254AE06068B0F5827F03D059
:100B100004F11C00002101600025A56294F8510039
:100B200000284FF0000007D1204684F8505000F014
:100B300039F8A06A00F40050022184F8511094E8BA
:100B40004E0002F482720F6803F4044327F040075A
:100B50000F601A4406F400631A44236903F0020389
:100B60001A44636903F001031A44A36903F400768D
:100B70003244E66906F038063244266A06F08006FA
:100B8000324310430860042000EA13404860C869FB
:100B900020F40060C8610120656584F85100284692
:100BA000F8BD000070B586B00026CDE90466CDE939
:100BB0000266174C006804F52051884225D115487B
:100BC00002AD016841F480510160016801F4805177
:100BD00001910199016841F0040101600068294612
:100BE00000F0040001900320059002200390A02053
:100BF000029001982046FFF799FB4020CDE903665B
:100C0000029020462946FFF791FB06B070BD00BF59
:100C100000080140181002402DE9FC41044690F8FC
:100C20005000012804BF0220BDE8FC8101201D46C0
:100C300016460F4684F85000FFF754FC804694F89F
:100C40005100012853D10120002F51D0002E4FD048
:100C5000032084F8510000206065E686A68627639D
:100C6000A087A063C4E91000E087A1682068B1F5FF
:100C7000004F07D1016821F040010160016841F493
:100C8000804101600168490603D4016841F04001D8
:100C900001606168731EE268B1FA81F1B3FA83F30F
:100CA00049095B091943B2F5006F26D131B137F814
:100CB000021BC1602763E08E0138E0866E1CE08E67
:100CC000F0B320688168890708D4FFF70BFC002E79
:100CD000F5D0A0EB0800A842F1D34BE0216B31F82E
:100CE000022BC2602163E08E0138E086E7E7022034
:100CF000002184F85010BDE8FC8139B139780173C6
:100D0000206B01302063E08E0138E0866E1CE08E9F
:100D1000B0B120688168890708D4FFF7E3FB002E93
:100D2000F5D0A0EB0800A842F1D323E0216B0978AD
:100D30000173206B01302063E08E0138E086E6E726
:100D400020462946424600F07DFB08B12020606520
:100D5000A06838B9002001902068C16801918068BE
:100D600001900198616D01200029C1D184F85100E2
:100D70000020BDE7012084F851000320B8E70000FF
:100D8000411E0020B0EB116F1CBF01207047044AC8
:100D9000F023516003490B70072190601160704788
:100DA00010E000E023ED00E07047704710B590F8C8
:100DB0003C300222012B2AD080F83D20012280F80D
:100DC0003C2002680B685468B2F1804F24F0700434
:100DD00044EA0304936854600ED00E4CA2420BD038
:100DE0000D4CA24208D00D4CA24205D00C4CA242A0
:100DF00002D00C4CA24204D1496823F0800319436D
:100E000091600022012180F83C2080F83D101046BE
:100E100010BD00BF0004004000080040000C00406E
:100E200000340140002C014040B310B5044690F856
:100E30003D0028B9002084F83C00204600F020F84E
:100E4000022084F83D002068211D00F0CBFB01202A
:100E500084F8460084F83E0084F83F0084F840009F
:100E600084F8410084F8420084F8430084F8440088
:100E700084F8450084F83D00002010BD0120704733
:100E8000E0B500680B49884218BF8CBD0A480022B3
:100E9000016841F0100101600068002100F01000BD
:100EA000019001983620FFF77FFB3620BDE88C408B
:100EB000FFF76CBB001000401C100240704710B5DB
:100EC000044600680169890744BFC1685FEA81710F
:100ED00039D40169490744BFC1685FEA41713ED412
:100EE0000169090744BFC1685FEA017144D401691F
:100EF000C90644BFC1685FEAC16149D40169C90735
:100F00001CBFC1685FEAC1714FD10169090644BFC6
:100F1000C1685FEA016150D40169490644BFC168F4
:100F20005FEA416151D40169890644BFC1685FEA43
:100F3000816100D410BD6FF0200101612046BDE841
:100F40001040FFF732BF6FF00201016101212177EC
:100F50008069800741D02046FFF7B0FF43E06FF083
:100F60000401016102212177806910F4407F3ED0A5
:100F70002046FFF7A3FF40E06FF008010161042164
:100F80002177C06980073CD02046FFF797FF3EE0FD
:100F90006FF01001016108212177C06910F4407FD2
:100FA00039D02046FFF78AFF3BE06FF00101016175
:100FB000204600F03DF82068A7E76FF0800101614E
:100FC0002046FFF7F1FE2068A6E76FF040010161BF
:100FD000204600F04DF82068A5E7204600F025F8EF
:100FE000204600F023F800202077206871E7204693
:100FF00000F01BF8204600F019F800202077206848
:101000006EE7204600F011F8204600F00FF80020AF
:10101000207720686BE7204600F007F8204600F0B4
:1010200005F800202077206868E7704770470000C7
:1010300010B5C44900680968884215D10B4C207965
:10104000C10711D1618801316180228889B2914242
:101050000AD3C10603D440F00100207102E0D4E9B4
:10106000020188470020608010BD00BF50000020B2
:10107000704758B310B5044690F8410028B90020D5
:1010800084F84000204600F023F8242084F8410032
:101090002068C16821F40051C160204600F0EEFADA
:1010A0002068016921F490410161416921F02A0120
:1010B0004161C16841F40051C16000202021606499
:1010C00084F8411084F84210606310BD012070471D
:1010D00010B586B00021CDE90411CDE902110068F8
:1010E000B549764C884223D0A549884246D17248FA
:1010F000016841F480410160016801F4804101917F
:101100000199016841F004010160006802A900F042
:101110000400019003200590022003904FF400701A
:10112000029001982046FFF701F94FF480601DE01E
:101130006148416841F400314160416801F4003187
:1011400001910199016841F004010160006802A960
:1011500000F0040001900320059002200390042079
:10116000029001982046FFF7E1F808200290002045
:10117000CDE9030002A92046FFF7D8F806B010BD5C
:101180002DE9F843044690F8410020281CBF0220B6
:10119000BDE8F88388460120002942D01746002A7E
:1011A0003FD04FF0000921201D46C4F8449084F838
:1011B0004100FFF797F9E784A7840646A068B0F5D9
:1011C000805F05D12769002F0CBFC146474600E06C
:1011D0004746E08CB8B12046802132462B4600F0CD
:1011E0008DFAB8B927B117F8010B2168486006E0FD
:1011F00039F8021B20686FF35F2141600027E08C03
:101200000138E084E5E72046402132462B4600F0D5
:1012100075FA10B10320BDE8F883202084F841005E
:101220000020BDE8F88300002DE9FF472248234C49
:101230000168002241F02001016001684FF48876C6
:1012400001F020010091009901684FF0000941F080
:1012500004010160016801F0040100910099016836
:1012600041F01001016000684FF4887100F0100037
:10127000009000982046FFF72FF904F500652846F6
:10128000302100224FF03008FFF726F94FF0030A13
:101290000127CDE9029ACDE900676E462046314626
:1012A000FFF744F828463146CDE9029ACDE9008798
:1012B000FFF73CF8BDE8FF87181002400008014026
:1012C000F8B50F480A2100220E4FC0E90822C0E9F4
:1012D0000A2118214FF40073012402254FF482766D
:1012E000C0E90076C0E90222C0E90454C0E9063131
:1012F000FFF7FEFB18B1BDE8F840FFF712B8F8BDE4
:1013000034020020003001401CB5B5480E4B0024CB
:1013100040F2E7313F228461C0E90032C0E9024176
:10132000CDE90044FFF780FD08B1FEF7FAFFAC48B5
:101330006946CDE90044FFF739FD08B1FEF7F1FF3A
:101340001CBD00BF8C0200200010004010B50B48EF
:10135000E94C00210C224FF4E133C0E90043C0E91D
:101360000211C0E90412C0E90611FFF782FE18B1AC
:10137000BDE81040FEF7D5BF10BD00BFD40200206D
:101380000038014010B50B480B4C00210C224FF4E3
:10139000E133C0E90043C0E90211C0E90412C0E929
:1013A0000611FFF766FE18B1BDE81040FEF7B9BFA1
:1013B00010BD00BF1C03002000440040FEE7FEE714
:1013C00070B59AB00121044602F0BAFE2046002111
:1013D00002F0B3FE1449204602F09FFE144E13A300
:1013E000204600211E22B04712A3204618211E22AB
:1013F000B04711A3204630211E22B0470FA320463C
:1014000048211E22B04701AD1E9A0DA1284603F0C7
:1014100011FC204660211E222B46B047204602F0D8
:1014200073FE1AB070BD00BF985300084C00000056
:101430009D40000845000000440000003A00000004
:101440002564000010B513460A468021044600F0CA
:101450000BF800280FBF0020606D40F02000606591
:1014600018BF032010BD00002DE9FC411E461746A1
:101470000D468046FFF736F8301AC419FFF732F8E8
:101480000646524801370068C0F3CB3060430190F4
:10149000D8F8000081682940A9420FD1002FF9D067
:1014A000FFF720F8801BA0420BD201980199002879
:1014B000A1F10101019108BF0446E9E70020BDE860
:1014C000FC81D8E900014268B1F5827F22F0E00298
:1014D00042600BD1D8F80810B1F5004F02D0B1F539
:1014E000806F03D1016821F040010160D8F8281015
:1014F000B1F5005F07D1016821F400510160016876
:1015000041F400510160002088F85000012088F863
:1015100051000320BDE8FC81704701F021BEB0B549
:1015200090B0002401A81421CDE90B44CDE9094471
:10153000FEF79BFE4FF4C0100F904FF48030022551
:1015400001210E900D950A910894CDE9061006A888
:10155000FFF736F918B1EFF3108072B6FEE74FF4DB
:1015600080600594CDE903400F20CDE9010501A875
:101570000221FFF745F818B1EFF3108072B6FEE7CD
:1015800010B0B0BD0E48016801F00C020D49082AE8
:101590000BD10268C2F3834203680232DB0302D537
:1015A00003689B0300D508495143084A084B116062
:1015B0000068C0F30310185C21FA00F01060704757
:1015C0000410024000127A0000093D0008000020CB
:1015D000DA4D0008704700000148FFF770BC00BFFB
:1015E0008C020020B0B50268B0F1804F0ED01E4BC7
:1015F00098420BD01D4B984208D01D4B984205D005
:101600001C4B984202D01C4B984203D14B6822F0ED
:1016100070021A43B0F1804F0ED0134B98420BD09A
:10162000124B984208D0124B984205D0114B984269
:1016300002D0114B984203D1CB6822F440721A4376
:101640004D6922F080022A430B688C680260094AC7
:10165000C4629042836202D0074A904201D1096974
:10166000016301214161B0BD000400400008004059
:10167000000C004000340140002C0140B0B504468D
:10168000006804F108030ECB0569194325F44055A1
:101690002A430261C268636941F20C65AA43194397
:1016A0001143C1604169A26921F440711143416154
:1016B0001149884202D0FFF741F801E0FFF748F8EE
:1016C00019214843D4E900126FF063049200B0FB83
:1016D000F2F06422B0FBF2F303FB0400322404EBCB
:1016E0000010B0FBF2F000F0F00202EB031200F089
:1016F0000F0010448860B0BD003801402DE9F04172
:101700001D4690460F4604465E1C2068006838401F
:10171000B84227D0002EF8D02DB1FEF7E3FEA0EBA3
:101720000800A842F1D9206850E8030F216820F48E
:10173000D07041E80302002AF5D1206850E8050F77
:10174000216820F0010041E80502002AF5D120209F
:10175000002184F8410084F8401084F842000320FE
:10176000BDE8F0810020BDE8F081FEE710B5074C30
:1017700000F00F032344044AB0F1FF3FC8BF8318B1
:101780000801187010BD00BF00E400E014ED00E097
:1017900018B1C1B219B101200EE00020704710F459
:1017A0007F4102D0090A092006E010F47F0107BF3B
:1017B000010E1920090C1120014A515C08447047A0
:1017C000F24D0008BCB5069D044600F12007143018
:1017D0002EC7C4E90500184623212A4601F012FC51
:1017E00004F120030FCB1A440E4B043A01F0FAFA2D
:1017F0000799002284F83610E06108982346C4E96E
:101800000E20206484F83510C4E91C2284F83420AA
:101810002263CDE90022044A04F14400214602F08B
:10182000E8F8BCBDDD350008FF370008B0B5054657
:10183000FEF79AFC296F044609B1284688472046DE
:10184000BDE8B040FEF794BC80B500F06DFB002011
:1018500080BD80B500F032FC002080BD10B5F4489A
:10186000416991F82110890703D4F24800210170E1
:101870001BE0016929B1EF484FF48072FEF700FDCB
:1018800013E000F00FFF20B1EA4800210171084980
:1018900004E0E8480749C0F803100749E54C016037
:1018A0002046FEF7F9FC3E212152E24810BD00BF60
:1018B0006D7368207368200066696E737CB5194E7D
:1018C00019481A49C6E900100120782100F0ECFF00
:1018D0007061F8B10A201521CDE90010164914A055
:1018E00000224FF48063002401F01BFE054670695E
:1018F00012A10022002301F0A5FC706990F82110CC
:1019000041F0020180F821104DB1284601F040FF5E
:10191000002404E00BA001F0C5FA4FF0FF3420468C
:101920007CBD00BFC00000204C7700088C7600080A
:10193000747368656C6C00005D19000873687278D8
:10194000000000006E6F206D656D6F727920666F0C
:1019500072207368656C6C0A00000000DFF8D0A28A
:10196000DAF8140090F8211041F0010180F82110FC
:10197000FFF774FFAF4801F095FAB04E4FF0010B3E
:101980004FF00008022701F063F8DAF814501B2822
:1019900002D185F820B0F6E7814695F820000228AC
:1019A00007D0012830D1B9F15B0F2BD185F8207019
:1019B000E9E7A9F14100022885F82080E3D3B9F1D5
:1019C000000FE0D0A9F10800052839D9B9F1FF0FBF
:1019D000D9D0B9F1430F00F01581B9F17F0F55D07F
:1019E000B9F1440F1DD1B5F874000028CBD03046B2
:1019F00001F058FADAF81400B0F874100139A0F8C0
:101A00007410C0E785F82080A9F10800052811D9D5
:101A1000B9F1000FB7D0B9F1FF0FB4D0B9F17F0F12
:101A200034D0B5F872005028C0F093800020A5F89B
:101A30007200BDE0DFE800F02A640A03030AF0E761
:101A4000DFE800F0245E04030304EAE700F02AFE66
:101A500001280FD1DAF8140090F82110C90704D03A
:101A6000774801F01FFADAF81400B0F8721022304B
:101A700000F0EEFCFFF7F2FE6E4801F013FADAF820
:101A8000140054212230FEF7F0FB7CE7B5F8740017
:101A900000283FF478AF0138A5F87400B5F872104B
:101AA00080B20139A5F8721089B2814240F29F805C
:101AB0000A1A291801F12200233101F08DFADAF80F
:101AC0001400B0F87210084480F82280DAF814008C
:101AD000B0F87410084400F122015BA001F0E2F9B3
:101AE000DAF81400B0F87440B0F8720084423FF69F
:101AF0004AAF304601F0D6F9DAF814000134F3E7C2
:101B00000024B5F87400844206D2304601F0CAF9C8
:101B1000DAF814500134F4E7494801F0C3F92235EA
:101B200000F0C0FD012802D1284600F039FCFFF783
:101B300095FE404946A02A4601F0B4F9DAF814406F
:101B400004F12200FEF7A8FBA4F87400A4F87200C8
:101B500019E7B5F8741088422AD9421A294401F1CC
:101B60002300223101F038FADAF81400B0F87410CA
:101B7000084480F82290DAF8140090F82110C90780
:101B800009D0B0F87410084400F1220132A001F02D
:101B900089F9DAF81400B0F87450B0F872108D4278
:101BA00015D2304601F07EF9DAF814000135F4E779
:101BB000284480F82290DAF8140090F82110C90720
:101BC00005D01D48494601F06DF9DAF81400B0F867
:101BD00072100131A0F87210B0F8742089B201328D
:101BE000A0F87420502928BFC0F87280CBE615A059
:101BF00001F058F9DAF81400B0F87210084480F8CF
:101C00002280C0E6B5F87400B5F872108842BFF4BF
:101C1000BAAE284490F82210074801F043F9DAF8E8
:101C20001400B0F874100131A0F87410ABE600BFD6
:101C3000C000002030010020DC510008DA5100080B
:101C4000D152000808200800082573202008000051
:101C500025732573000000002573000080B502A0E5
:101C600001F020F9002080BD48656C6C6F20525453
:101C70002D546872656164210A00000070470000FD
:101C800082B001F00FFE0190DFF87C9020481F4FDA
:101C90000FF2600809F12006824609F1400401AD07
:101CA00001F000FE019001F0FDFD0146404601F00B
:101CB000F9F848464FF0FF3101F0F8FA30464FF09E
:101CC000FF3101F0F3FA3A7850464FF48071FEF795
:101CD00003FC387880F001003870304601F0C2FA19
:101CE000204601F0BFFA28464FF47A7101F03EFC1D
:101CF000D6E700BF5B6C65645F656E7472793A25E8
:101D0000645D0D0A00000000600000200C0000204F
:101D1000000801402DE9F0410EA001F0C3F812487F
:101D2000124D076812A40FF24C08286887420DD2A2
:101D30003E68214630460222FEF7B5FA20B17A68A5
:101D40004046314601F0AEF80C37EEE70020BDE822
:101D5000F08100BF2D2D46756E6374696F6E204C47
:101D60006973743A0A000000C0000020C40000201B
:101D70005F5F0000252D313673202D2D2025730A3D
:101D800000000000F8B500240C610646C86828B3BE
:101D9000087A0D4608B334462F68002E08BF3C462B
:101DA000FEF7E2F936B114F8042C297A02F07F022A
:101DB0008A4210D1696800262468BC4206D041F8E6
:101DC0002640EA6801369642F6D100E00024FEF78C
:101DD000CFF92E6102E0FEF7CBF900242046F8BDD2
:101DE0002DE9F04F93B00520052401F07DF98DF821
:101DF0004040002408210DF118090430129411917B
:101E0000CDF83C900E9029A031A2082101F04AF8AB
:101E100000F04AFC30A001F045F820460EA9FFF77B
:101E2000B1FF9DF840A0129F4FF000080490059765
:101E3000B84534DA59F82840FEF796F914F8045CEE
:101E4000FEF796F905F07F00504525D154F8087F3C
:101E5000B4F80CB0E5892046A4F1140601F038F876
:101E6000A7420FD0CDE9005B029022A008210822F2
:101E7000334601F017F8204602F034F8234801F009
:101E800011F808E0CDE9005B029021A008210822AA
:101E9000334601F007F8059F08F10108C8E7049CE4
:101EA000002CBAD1002013B0BDE8F08F252D2A2ECA
:101EB0007320656E7472792073697A652073757307
:101EC00070656E64207468726561640A00000000C9
:101ED0006D61696C626F7800202D2D2D2D20202DD5
:101EE0002D2D2D202D2D2D2D2D2D2D2D2D2D2D2D2F
:101EF0002D2D0A00252D2A2E2A732025303464200A
:101F000020253034642025643A000000D1520008B6
:101F1000252D2A2E2A7320253034642020253034A4
:101F2000642025640A000000B0B5074C0C4D216800
:101F300006A0A84721690BA0A84761690EA02A4600
:101F4000BDE8B040104700BFD8000020746F746136
:101F50006C206D656D6F72793A2025640A0000006F
:101F6000A52E000875736564206D656D6F7279200C
:101F70003A2025640A0000006D6178696D756D2056
:101F8000616C6C6F6361746564206D656D6F7279EF
:101F90003A2025640A0000002DE9F04F91B002209C
:101FA000022401F0A1F88DF838400024082104AF84
:101FB000043010940F910D970C9027A02DA20821AA
:101FC00000F070FF00F070FB2DA000F06BFF2046CA
:101FD0000CA9FFF7D7FE9DF83890DDF840A04FF030
:101FE00000080390D04530DA57F82840FEF7BCF8D7
:101FF00014F8046CFEF7BCF806F07F00484521D1C8
:1020000054F8085FB4F808B02046A4F1140600F0B4
:102010005FFFA5420ED0CDE900B01FA00821082225
:10202000334600F03FFF204601F05CFF1E4800F001
:1020300039FF07E0CDE900B01CA008210822334693
:1020400000F030FF08F10108CCE7039C002CBED162
:10205000002011B0BDE8F08F252D2A2E73207620A8
:10206000202073757370656E642074687265616496
:102070000A00000073656D6170686F726500000092
:10208000202D2D2D202D2D2D2D2D2D2D2D2D2D2D9A
:102090002D2D2D0A00000000252D2A2E2A73202523
:1020A0003033642025643A00D1520008252D2A2EB1
:1020B0002A7320253033642025640A002DE9F04F6F
:1020C00091B00120012401F00FF88DF83840002470
:1020D000082104AD043010940F910D950C903048F8
:1020E00030A2082100F0DEFE00F0DEFA2FA000F0A2
:1020F000D9FE0FF2181B20460CA9FFF743FE9DF8EE
:102100003880DDF84090002603904E4541DA55F8BE
:1021100026A0FEF729F81AF8041C01F07F014145BA
:1021200033D1FEF725F89AF82900AAF10C030090A4
:102130002EA00821082200F0B5FE9AF8280000F031
:102140000F01042906D840F303002BA151F8200009
:1021500000F0A8FEDAF81C00431E13F8011F232923
:10216000FBD0DAE90824DAF83470D31ADAF8101060
:10217000CDE900741418184464235843B0FBF2F3FB
:10218000611A584600F08EFE01E0FDF7F1FF0136BE
:10219000BBE7039C002CAED1002011B0BDE8F08F4E
:1021A0004C5100087468726561640000202D2D2D6B
:1021B00020202D2D2D2D2D2D2D202D2D2D2D2D2D76
:1021C0002D2D2D2D202D2D2D2D2D2D2D2D2D2D2059
:1021D000202D2D2D2D2D2D20202D2D2D2D2D2D2D56
:1021E0002D2D2D202D2D2D0A00000000252D2A2E0D
:1021F0002A7320253364200090510008A251000862
:10220000C1510008CA5100089951000820307825B2
:10221000303878203078253038782020202025303C
:10222000326425252020203078253038782025304C
:1022300033640A002DE9F04F91B00A200A2400F01F
:1022400053FF0025082104AF04308DF83840109565
:102250000F910D970C9023A02CA2082100F022FED4
:1022600000F022FA2BA000F01DFE0FF2E80B3DA4B7
:1022700028460CA9FFF786FD9DF83850DDF8408010
:1022800000260390464520DA57F82690FDF76CFFAC
:1022900019F804ACFDF76CFF0AF07F00A84212D1D8
:1022A000D9E90601A9F10C03CDE90001284808216C
:1022B000082200F0F7FD19F8030CC007204608BFFC
:1022C000584600F0EFFD0136DCE7039D002DCFD12D
:1022D00001F0E8FA014618A000F0E4FD002011B07A
:1022E000BDE8F08F252D2A2E732020706572696F4E
:1022F00064696320202074696D656F7574202020E7
:1023000020202020666C61670A00000074696D65FA
:1023100072000000202D2D2D2D2D2D2D2D2D2D2049
:102320002D2D2D2D2D2D2D2D2D2D202D2D2D2D2DEA
:102330002D2D2D2D2D2D0A0063757272656E742062
:102340007469636B3A3078253038780A00000000F1
:10235000AB51000864656163746976617465640AF1
:10236000000000006163746976617465640A0000AE
:1023700080B5FEF759FFFEF7A3FFFEF7C5FFFEF796
:10238000E5FFFEF7FFFFFFF779FC01F013FD0020EA
:1023900080BD80B500F0A4FABDE88040FFF7E8BF3B
:1023A0002DE9F84F04460078002843D02448DFF890
:1023B00094B00768DFF8909000264FF0000ADBF831
:1023C000000087422ED23D68494628460622FDF786
:1023D0006AFF28BB2046FDF75FFF06350246204610
:1023E0002946FDF760FFD8B9BAF1000F04D128469D
:1023F000FDF752FF82462E464FF0000816F80800FF
:1024000038B115F80810884203D111B108F101085C
:10241000F4E70EA0294600F045FDD045B8BFC246FE
:102420000C37CCE756B1204631465246BDE8F84F4E
:1024300000F0D3BFBDE8F84F00F0F6B8BDE8F88F64
:10244000C0000020C4000020D351000825730A00FA
:102450002DE9F04F89B00D4681464DB199F8000045
:10246000202818BF092805D1013D09F10109F4E729
:102470000020B0E0A9F10104002606E0B54200F01A
:10248000848009EB060040780136C0B2092818BFE5
:102490002028F3D1002E00F09180B01D00904F480D
:1024A000DFF84081D0F800B04D48D0F800A0DA4500
:1024B00080F08480DAF80070414638460622FDF745
:1024C000F2FE40B9B81D49463246FDF7ECFE10B9A0
:1024D0000098385C10B10AF10C0AE8E7DAF80880D5
:1024E000B8F1000F6AD00DF1040A50462021FDF723
:1024F000BCFE0020494600234FF0000BAB4256D2F1
:102500001A460B78202B18BF092B05D1AA4203D2FB
:1025100001F8010B0132F4E7BBF1080F37D2AA42F0
:1025200045D2222B16D101314AF82B100E78531CBC
:10253000222E1ED0AB421CD25C2E07D10E4616F8BE
:10254000017F222F0CBF931C0E4600E00E461A4658
:10255000711CEBE74AF82B100BF1010B0027CE5D45
:10256000D319092E18BF202E0BD0AB4209D2013748
:10257000F5E70BF1010BAB421CD201F8010B931CE8
:10258000BCE73944AB42B9D314E02E4682E716A02B
:1025900000F088FC01AF1CA55E462EB102CF284694
:1025A00000F080FC013EF8E7184800F07BFCBBF12E
:1025B000000F03D001A95846C0470CE014F8010FE2
:1025C00010F0DF0FFAD10020207011A0494600F072
:1025D00069FC4FF0FF3009B0BDE8F08FC400002067
:1025E000C0000020D3510008546F6F206D616E79D8
:1025F00020617267732021205765206F6E6C7920EF
:102600005573653A0A00000025732000D152000876
:1026100025733A20636F6D6D616E64206E6F742058
:10262000666F756E642E0A002DE9F0410FA000F070
:1026300039FC1548154D0768164C0FF25C082868E0
:1026400087420DD23E68214630460622FDF72BFE1A
:1026500020B97A68B11D404600F024FC0C37EEE743
:102660000B4800F01FFC0020BDE8F08152542D54AF
:102670006872656164207368656C6C20636F6D6D52
:10268000616E64733A0A0000C0000020C40000209C
:10269000D1520008D3510008252D313673202D204A
:1026A00025730A0001207047B0B56FF0070504A438
:1026B00025B1204600F0F6FB0135F9E7B0BD00BFBB
:1026C0002D00000070B5C04A43685168CC188442A0
:1026D0000ED0658865B99568AC4209D0D368451AB3
:1026E000A34208BFD0606368436064680C44A5607F
:1026F00084680D19854201D06E8806B170BDD66818
:10270000864208BFD5606B6040680844846070BD35
:102710002DE9FF4FDDF83C8053A75FEA48644DA4E4
:1027200058BF27465FEAC86448BF28F001085FEA3F
:10273000C8744FF03009DDE90D6A964608BF4FF0C6
:1027400020095FEA887402D44FF0000C0AE0BEF161
:10275000FF3F0FDD5FEA48745ABF202404EA880C6B
:102760004FF02B0CBEF1000F08D1302201258DF85F
:1027700000201DE0CEF1000E4FF02D0C00254FF093
:102780000A0B6C46BEF1000F11D00A2B06D1BEFB1E
:10279000FBF202EB8206AEEB460603E04FEA1E12A6
:1027A0000EF00F069646BA5D62550135EAE70D9EBA
:1027B00055455346C8BF2B46F21A18F0110F12D1D7
:1027C0000024002AC8BF01246646BCF1000F18BFD0
:1027D00001263440121B2024013A04DB884238BF12
:1027E00004700130F8E7BCF1000F05D0884238BF13
:1027F00080F800C00130013A5FEAC86407D4013AAA
:1028000005DB884238BF80F800900130F7E73024BC
:102810009D4205DA013B884238BF04700130F7E77A
:102820006B46013BBAF1000F0FD0002D0DDD6C1E81
:1028300088423CBF5D5D057001302546F2E7013AF4
:1028400088423CBF202303700130012AF7DA04B02C
:10285000BDE8F08F30313233343536373839616284
:10286000636465660000000030313233343536373A
:10287000383941424344454600000000E0B5142089
:102880000A21CDE90010074904A000224FF480631B
:1028900000F047FEBDE88C4000F07ABF6D61696EC4
:1028A0000000000093230008B0B501FB00F42046AF
:1028B00000F018FB054620B128460021224600F012
:1028C000A1FB2846B0BD0000B0B5044C094DAC4298
:1028D00028BFB0BD01CC8047F9E700BF787600087B
:1028E000B0B5044C044DAC4228BFB0BD01CC80470C
:1028F000F9E700BF807600088876000880B5FDF70C
:1029000033FC11494A8801324A80BDE88040FDF716
:102910002FBC00BF10B5FDF727FC0B4C61880139B7
:10292000618009B2002903DDBDE81040FDF720BC3D
:1029300000216180FDF71CFC606818B1BDE8104003
:1029400000F018BC10BD00BF10010020F8B5D0B3D6
:102950001D4F04467868A04235D8B868A04232D9E5
:1029600007F1180528464FF0FF3100F09FFC34F8BE
:102970000A0CA4F10C0618B13088B0F5F55F0AD046
:1029800012A000F08FFA34F80C3C34F80A2C16A090
:10299000314600F087FA4FF4F55044F80C0CF86813
:1029A000B04288BFFE6054F8080C7968301A3A6962
:1029B000401A104438613046FFF784FE2846BDE8CF
:1029C000F84000F04FBCF8BDD8000020746F2066BE
:1029D00072656520612062616420646174612062B7
:1029E0006C6F636B3A0A00006D656D3A2030782594
:1029F0003038782C207573656420666C61673A20E6
:102A000025642C206D6167696320636F64653A20DB
:102A10003078253034780A0002487047014800F5C4
:102A2000F0407047E003002010B5FDF761FDFEF7B0
:102A300076FDFEF7A7FDFFF747FFFFF7EDFF044622
:102A4000FFF7ECFF01462046BDE8104000F0DCBC7B
:102A5000E0B51D480068016889060ED401680907C1
:102A600006D500210191016801914068019001980B
:102A70000A2000F03CFEFF2000E04068C0B28CBDA0
:102A8000F8B5114D0446002085F840000D208DF862
:102A90000300204600F09AFC06460DF103078EB1B4
:102AA00020780A2805D12846394601220123FEF75D
:102AB00067FB2846214601220123FEF761FB013412
:102AC000013EECE7F8BD00BF1C030020B0B5044692
:102AD0007648016819B12046884700287AD0216CD1
:102AE0007348744DA847616A7348A847A16A734840
:102AF000A847E16A7248A847216B7248A8476168F5
:102B00007148A847A16871A0A847E16873A0A847C9
:102B1000216976A0A847616978A0A847A1697BA030
:102B2000A847E1697DA0A847216A80A0A847616BFA
:102B300082A0A847A16B85A0A847E16B87A0A84702
:102B40002078400703D48A4800F0ACF907E000F091
:102B5000F9FD0146854800F0A5F9FFF7AFFA854C6D
:102B60006068800702D5844800F09CF960684000E6
:102B700040F19380607890B3804800F093F96178D9
:102B80007F4800F08FF96078C00702D07D4800F0E0
:102B900089F96078800702D57B4800F083F9607876
:102BA000400702D5794800F07DF96078000702D52A
:102BB000774800F077F96078C00602D575A000F07C
:102BC00071F994F90100B0F1FF3F04DD734800F0A2
:102BD00069F904E0B0BD2169714800F063F920781B
:102BE00058B3704800F05EF921786F4800F05AF948
:102BF0002078C00702D06D4800F054F92078800793
:102C000002D56B4800F04EF92078000702D56948DC
:102C100000F048F92078C00602D5674800F042F974
:102C200094F90000B0F1FF3F03DD5C4800F03AF991
:102C300003E0E168614800F035F9608868B36048F6
:102C400000F030F961885F4800F02CF96088C00717
:102C500002D05D4800F026F96088800702D55B4805
:102C600000F020F96088400702D5594800F01AF9B1
:102C70006088000702D5574800F014F96088C00545
:102C800002D5554800F00EF96088800502D55348FA
:102C900000F008F9414800F005F96068B0F1FF3F25
:102CA00002DC4F4800F0FEF8FEE700BFDC03002026
:102CB000C6520008A52E000885520008925200084E
:102CC0009F520008AC520008B95200087230353AE1
:102CD000203078253038780A000000007230363A0B
:102CE000203078253038780A000000007230373AFA
:102CF000203078253038780A000000007230383AE9
:102D0000203078253038780A000000007230393AD7
:102D1000203078253038780A000000007231303ACF
:102D2000203078253038780A000000007231313ABE
:102D3000203078253038780A000000007231323AAD
:102D4000203078253038780A00000000206C723A74
:102D5000203078253038780A000000002070633A6F
:102D6000203078253038780A00000000F95100083A
:102D7000DF51000828ED00E06352000837520008D8
:102D80004A530008355300082A5300082853000806
:102D90001E53000853544B4552522000D152000894
:102DA000435200081652000860530008F952000808
:102DB000EF5200081D530008145300085352000836
:102DC00029520008765300083E530008E5520008D7
:102DD000D35200080E530008DA52000803530008CB
:102DE0007852000870B5043222F007040A4EA4F1AC
:102DF00040026FF03F0515B166510435FBE7002531
:102E00004FF0807644E9081544E9065544E9045337
:102E100044E90206104670BDEFBEADDE80B5FDF799
:102E2000A3F9E7490A7801320A70BDE88040FDF74E
:102E30009FB900BF80B5FDF797F9E1490A78013ADB
:102E40000A70BDE88040FDF793B900BF00681438F0
:102E500000F054BC70B50546084616460C4600F016
:102E6000ADFCB6B1012E1BD128460068A84210D097
:102E700090F8211094F835208A42F6D214388169EE
:102E800004F1140200F114030A60C4E905318261FF
:102E900070BD686804F1140101606561A06169603A
:102EA00070BD000083B0B8B5044605A8074D0EC03C
:102EB00005AB2846FF212246009300F011FE28466C
:102EC000FFF7DEFDBDE8B84003B07047EC7B0020A3
:102ED00001464FF0FF300A46126801308A42FBD1AA
:102EE000704700002DE9F047D8B3DFF88095033034
:102EF00020F0030AD9F80000824532D809F11808F9
:102F000040464FF0FF3100F0D1F9BAF10C0F98BFF5
:102F10004FF00C0AD9E900C0D9F80CE0ACEB0A0478
:102F2000051DAEEB0002A24218D286187188134626
:102F300009B1EA58F7E7726803F10C01571A5745CF
:102F4000F1D30AF11804A7420ED201217180811B2E
:102F50001144D9E9042311448B421DE0404600F09E
:102F600081F90020BDE8F08701EB0A054FF4F55127
:102F7000415141194A600122756072808B60496835
:102F80000CF10C0291421CBF01448D60D9E904127E
:102F90000AF10C0421448A42C9F8101001D2C9F880
:102FA00014104FF4F551B64531800DD1D9F80820F1
:102FB000BEF8021041B1964506D0DEF8041000EBD1
:102FC000010EC9F80CE0F3E7404600F04BF906F1BA
:102FD0000C00BDE8F08700BF10B5814209D28B1804
:102FE000834206D90139431E5AB18C5C9C54013A84
:102FF000FAE703462AB111F8014B013A03F8014BF5
:10300000F8E710BD10B5042A01D3830701D00346A9
:1030100016E0CBB243EA032343EA034403460F2AF4
:1030200008D9C3E90044C3E90244103A1033F6E773
:1030300010C3043A042AFBD202E003F8011B013A50
:10304000002AFAD110BD2DE9F0418846074600F06C
:103050004BF80546C068FFF745FF0026C0B1EA6897
:1030600000210446FFF7CEFF204641460822667243
:10307000277200F0B2F9FDF777F855F8041F2246E1
:1030800042F80C1F4A602A602561FDF771F8264658
:103090003046BDE8F08110B5044600202072FDF7EF
:1030A00063F82246216952F80C3F596021690B6090
:1030B00022611260FDF75CF82046BDE81040FFF782
:1030C00045BC10B5044600202072FDF74DF854F8B9
:1030D0000C1F62684A6062681160C4E90044BDE880
:1030E0001040FDF745B8000008496FF04F0212F19B
:1030F000100304BF002070470A4492F85020824217
:103100001A46F4D1C8184030704700BF10000020A4
:10311000F8B50446084615460E46FFF7E5FF074694
:10312000FFF7ECFB043738460068B842FCD1FFF7E4
:10313000F1FB46F08000207220462946082200F06C
:103140004CF9FDF711F8396844F80C1F4C603C60ED
:103150006760BDE8F840FDF70BB8007AC00970471A
:1031600080B5FFF75BFE00F0A1FBBDE88040FFF7F4
:1031700061BE0000B0B5FCF7F7FFE34D0446688878
:1031800020B12046BDE8B040FCF7F2BFA868FEF7CA
:10319000FFFADE49013851F830106A68A1F11403D2
:1031A0009A42EED06B60287002F11C00044A08318C
:1031B000127812B1FCF7DFFFE3E7FCF7DCFFE0E792
:1031C000E47B0020F8B50446FCF7CEFF94F83520E8
:1031D000CE4B04F1140503EBC2025368CA4E94F8B7
:1031E0003410A3611D60A36BB76801F0F0013B438D
:1031F0000131B36084F8341055606261BDE8F84075
:10320000FCF7B6BF10B50446FCF7AEFF214651F8F7
:10321000142F4B6853604B681A60C1E9001191F894
:103220002110BA4A02EBC10352F83110994205D17C
:10323000B54AA16B936823EA01019160BDE8104093
:10324000FCF796BF70B515460A4602211C46064695
:10325000FFF75EFF06F11400B583C6E90500002004
:10326000747270BDB0B50546FCF77EFF0446284673
:1032700050F8141F814207D0FFF7E8FD2046FCF705
:1032800077FFFFF777FF0FE0A88B4FF6FF718842BB
:1032900005D12046FCF76CFF6FF00200B0BD013095
:1032A000A8832046FCF764FF0020B0BDF8B50E46A9
:1032B00007460091FCF758FF0446B88B30B101383F
:1032C000B8832046FCF754FF0020F8BDFEB100F0A3
:1032D00039FA0546002028637A7A07F11400294656
:1032E000FFF7B8FD012E09DB05F144066A463046BA
:1032F000002100F041FB304600F092FB2046FCF735
:1033000037FFFFF737FF286B0028DED1DCE72046C8
:10331000FCF72EFF6FF00100F8BD00001CB50B4C50
:1033200007A0A0470AA0A04712A0009014A0032164
:1033300001220523A0471AA02146BDE81C400847EA
:103340000A205C207C202F0A00000000A52E000827
:103350002D205254202D2020202020546872656199
:1033600064204F7065726174696E6720537973745D
:10337000656D0A004A756C202037203230323300E8
:10338000202F207C205C202020202025642E2564F6
:103390002E2564206275696C642025730A00000084
:1033A0002032303036202D203230323020436F70C2
:1033B0007972696768742062792072742D746872FA
:1033C000656164207465616D0A000000411E11F89A
:1033D000012F002AFBD1081A7047B0B592B10346FD
:1033E00004460D7804F8015B2DB1013A01F10101A9
:1033F0002346F6D106E0012100248A4202D05C5423
:103400000131FAE7B0BD000010B50A46014622F0CE
:103410000300192824D3CB1CA0F1180423F00303C4
:103420009C421DD34FF4F5511960C11A0F4CA1F104
:103430000C0218395A602160002199600C496360C0
:10344000034643F80C1DA36040E9022204F1180072
:1034500008A101220023FFF7F5FE6068E06010BDBF
:1034600006A0BDE81040FFF71DBD00BFD80000203A
:10347000A01E010068656170000000006D656D2090
:10348000696E69742C206572726F7220626567695B
:103490006E206164647265737320307825782C2007
:1034A000616E6420656E642061646472657373206C
:1034B000307825780A0000001348EF4A0021418047
:1034C000B1F5807F04D0531853505B600831F7E7A3
:1034D0001F220021027000F10C02C0E90111C0E9B5
:1034E0000322704710B5084CA068FEF751F9E24975
:1034F00001EBC00050F8080CA0F114016160083025
:10350000BDE81040FCF765BE10010020EC7C0020F7
:103510000248011DC0E90111704700BF24010020CD
:103520007047FEB50E46014601201F461546FFF7BF
:103530008AFD98B104463846FFF7D4FC58B10346DB
:10354000DDE908102A46CDE9007102902046314697
:10355000FEF738F903E02046FFF79DFD00242046E2
:10356000FEBD80B500F0F2F8002080BD2DE9F041ED
:103570000446C0480F460568FCF7F6FD064600F015
:1035800091F92168401AB8421ED20F4400F08AF91E
:10359000381A2060284600F011F905F14407384632
:1035A000002122464FF0000800F0E6F9384600F00E
:1035B00037FA3046FCF7DCFDFFF7DCFD286B023004
:1035C00008BFC5F8308002E03046FCF7D1FD00F0BE
:1035D00069F920600020BDE8F08100BFB0B5A548C2
:1035E0000568FCF7C1FD04462846FEF71FF928468A
:1035F000FFF708FE042085F8340005F1440000F0D0
:10360000E0F92846FFF7A9FD012803D12846FFF776
:1036100058FD06E01848016845F8141F4D60056024
:103620006860FFF7A7FD2046BDE8B040FCF7A0BDED
:1036300000F002F8FCE7000070B50F4DFCF794FDB8
:103640002E680446AE4211D0D6E9001270694A6075
:1036500072681160C6E90066FFF778F9A6F11400F8
:10366000FFF719FD2046FCF783FDE7E72046BDE89C
:103670007040FCF77DBD00BF1C0100201FB520205D
:1036800003901F2002904FF4807001900748084C6F
:103690000A4A009007A12046002300F011F82046B6
:1036A00004B0BDE8104000F073B800BFEC7D00200E
:1036B000640300207469646C650000003136000802
:1036C0007FB515460A4601211C460646FFF720FD38
:1036D0000B98089B02900A98294601900998224667
:1036E00000903046FEF76EF8002004B070BD80B543
:1036F00000F0C4F800F02AF8002080BDB0B5044600
:1037000090F8340000F00F0002281CBF4FF0FF308B
:10371000B0BDFCF729FD21460546A06951F8142FDC
:103720005060A069026004F14400A161096000F0EA
:10373000BBF92846FCF71CFD2046FFF743FD00209F
:10374000B0BD00004B480068704700BFF8B500905E
:10375000FCF70AFD054647480468204600F02EF8AD
:1037600004F144066A4630460021002700F004F9BF
:10377000304600F055F92846FCF7FAFCFFF7FAFC52
:10378000206B02304FF0000008BF2763F8BD00BF78
:1037900080B5022180F8341090F83610012280F8AC
:1037A000351002FA01F18163FFF7A8FF3148006884
:1037B00008B1FFF7DFFC002080BD00BFB0B50446B4
:1037C00090F8340000F00F0001281CBF4FF0FF30CC
:1037D000B0BDFCF7C9FC05462046FFF713FD94F881
:1037E000340000F0F000023084F8340004F14400AA
:1037F00000F05AF92846FCF7BBFC0020B0BD80B5AC
:103800000246816952F8143F596081690B606FF07C
:103810000101016382611260FFF7D4FCBDE88040C2
:10382000FFF7A8BC10B5FCF79FFC1249096891F896
:10383000342002F00F02012A18D10A4652F8143F30
:103840005468A34212D05C608C698A61236091F84D
:103850003530094C04EBC3035C682260C1E90534D0
:103860005A60FCF785FCFFF785FC01E0FCF780FC63
:10387000002010BD14010020EC7C002000280DD495
:103880004FF47A71B0FBF1F202FB1100484300F2F1
:10389000E730B0FBF1F002FB010070474FF0FF3062
:1038A000704700000B480068704700BF80B50948AA
:1038B000016801310160FFF745FF016C01390164C6
:1038C00003D1C16B0164FFF7ADFFBDE8804000F09C
:1038D00003B800BFF07E00202DE9FE4301AECDE924
:1038E0000166FFF7DFFF0546FCF73EFC80466D48AA
:1038F0006B4F8146384650F8044F844237D0606998
:103900004946281A484532D8D4E900014160616827
:103910000860C4E9004414F80B0C81075CBF00F098
:10392000FE0004F80B0C01984460C4E90006019401
:10393000D4E902108847FFF7B5FF05460198B04269
:10394000D8D0D4E90001416061680860C4E900444E
:1039500014F80B1C01F003000328CBD1A4F11400D0
:1039600001F0FE0104F80B1C00F05AF8C2E74046D3
:10397000FCF7FEFBBDE8FE8370B514460E46054617
:10398000FCF7F2FB042E18D8DFE806F00306080C5B
:1039900011002168696210E0696A0DE0697A01F03E
:1039A000FD0102E0697A41F00201697205E0697A7D
:1039B000C9070CBF002101212160FCF7D9FB0020C1
:1039C00070BD10B50446FCF7CFFB2246A16952F842
:1039D000143F5960A1690B60617A01F0FE016172C8
:1039E000A2611260FCF7C4FB2046FFF76AFB0020CF
:1039F00010BD70B515460A460A211C460646FFF75B
:103A000087FB0020B0620598C6E9075400F0FE006D
:103A100070720498706206F11400C6E9050070BD6A
:103A20002DE9F0410446FCF79FFB2646804656F8F8
:103A3000140F716841607168086016F80B0C00F093
:103A4000FE0006F80B0CC6E90066FFF72BFF316994
:103A5000144F0844124970618B68C243081D012548
:103A6000ED070AD0984206D005686D691544BD423D
:103A700001D30068F6E70025F2E70268626156604C
:103A80000A6801320A600660A061607A40F00100B5
:103A900060724046FCF76CFB0020BDE8F08100BF7F
:103AA00024010020FEFFFF7F10B50446407AC007C6
:103AB00004BF4FF0FF3010BDFCF756FB54F8141F45
:103AC00062684A606268116014F80B1C01F0FE0124
:103AD00004F80B1CC4E90044FCF74AFB002010BDAD
:103AE0002DE9F04F87B09946074600EB010A4FF0E9
:103AF000200B06920491002948BF4FF0FF3A059031
:103B00001078252807D0002800F02081574500D2E2
:103B100038700137C3E0501C4FF0000801782029AD
:103B20000AD023290AD01022302909D02D2908D003
:103B30002B290AD1042204E0082202E0202200E01E
:103B4000012248EA02080130E8E7A1F13002092A1F
:103B5000069005D806A800F0DFF9064606980EE0A4
:103B60002A290AD10130069059F8046BB6F1FF3FBB
:103B7000DCBF48F01008764201E04FF0FF360178D4
:103B80002E290AD1411C06914178A1F13002092A5F
:103B900006D806A800F0C0F908E04FF0FF3009E0B1
:103BA0002A2906D10230069059F8040BB0F1FF3FE4
:103BB00000DC002006990B7843F004026C2A04D143
:103BC00011F8012F9C46069102E04FF0000C1A46B6
:103BD000A2F16F04092C0BD9252A64D0582A41D0B0
:103BE000692A18BF642A0DD148F002080A233CE074
:103BF0000A23DFE804F005165D5D295D3A5D5D3955
:103C0000082332E0632A53D15FEAC8605ED4013EE4
:103C1000012E5BDB574538BF87F800B0013E013706
:103C2000F6E7711CB1FA81F14FEA511141EA08013E
:103C300059F8042BC9B208BF0826CDE900600291EB
:103C400038465146102327E059F8041B0023002969
:103C500047A208BF11469E424BD0CA5C002A49D0F9
:103C60000133F8E748F040081023BCF16C0F02D193
:103C700059F8042B09E059F8042BBCF1680F04D162
:103C80005FEA88714CBF12B292B25FFA88F1CDE957
:103C90000060029138465146FEF73AFD0746069805
:103CA000421C06922CE75745BFF433AF25202FE77F
:103CB000574503D22520387006990A78781C002AC7
:103CC00041D0504538BF02700237E8E757453CBF46
:103CD000D9F80010397009F10400711E013701296B
:103CE00005DB574538BF87F800B00139F6E7814654
:103CF000D5E7334683421A46C8BF02460028D8BFDC
:103D00001A465FEAC86009D4701EB24207DA574506
:103D100038BF87F800B001370646F5E73046002483
:103D20003B1994420BDA53453CBF0D5D1D700134C5
:103D3000F6E70138534538BF83F800B001338242BB
:103D4000F7DB1F46ABE701390691A7E70498059A10
:103D5000002848BFD04330B138460021574528BF1E
:103D6000AAF101000170B81A07B0BDE8F08F00BFDA
:103D7000284E554C4C290000002070470020704709
:103D8000002070470020704780B5FCF7EDF9FEF782
:103D90004BFEFFF7C3FAFFF7BBFBFFF78DFBFEF708
:103DA0006DFDFFF7BDFBFFF769FCFFF79BFB0020F4
:103DB00080BD0000FEB51C48102101220126FCF741
:103DC0008BFB1A4800F0BAF8194C1C4F04F1200084
:103DD00018A101220023B847194D20462946012287
:103DE0000023B84704F14000164C0022214600236E
:103DF000B84708201449CDE90006284600224FF4B0
:103E00008063FFF78EFBFFF7C3FC07200F49CDE966
:103E10000006204600224FF48063FFF782FBBDE8D6
:103E2000FE40FFF7B5BC00BF00080140F47E002053
:103E3000600000206C6F636B0000000045320008DA
:103E40004151000845510008811C0008513E0008FE
:103E500082B0FFF727FDDFF88090204CDFF880A0CC
:103E60000FF2600809F1400609F1200701AD019049
:103E7000FFF718FD0190FFF715FD01464046FFF7DB
:103E800011F830464FF0FF31FFF710FA38464FF087
:103E9000FF31FFF70BFA204600F06AF89AF80000AD
:103EA0000021009020460022FDF78AFA3846FFF7ED
:103EB000D9F94846FFF7D6F928464FF47A71FFF74B
:103EC00055FBD5E75B73637265656E5F656E7472F3
:103ED000793A25645D0D0A0060000020F47E002020
:103EE0000C000020F8B5044609A50AA607463F685D
:103EF000A74208BFF8BDA7F114012846FEF7D2FF7C
:103F00003868A042F3D03046FEF7CCFFEFE700BFA1
:103F1000257300002F000000026800211378303B59
:103F2000092B84BF08467047531C0360127801EBCD
:103F3000810102EB410130391A46EFE710B509491A
:103F4000094A0A4B044600F02FF9204600F073FCA2
:103F50002046002100F07BFC2046BDE8104000F028
:103F600007B800BF8C530008C1480008ED4B00089B
:103F700080B5026890F83810127C406B5143C9003C
:103F8000FCF773F980BD0000F8B5044690F87000A6
:103F90001D4616460F46032816D8DFE800F0020734
:103FA0000C11E16D2046884706440DE0E16D204686
:103FB00088473F1A08E0E16D20468847361A03E03B
:103FC000E16D20468847074420462946A4F86660EC
:103FD000A4F8647000F002FB20B10146204600F016
:103FE0000FFA00E0002080B2F8BDFEB5002BADF85E
:103FF0000820ADF80A10ADF806304DD0044690F810
:104000008C00002848D0089815460E46012B08D091
:1040100003281FD0022804D1F01A0130ADF80A009D
:1040200001E0C0071AD1B4F84C00A84234D8B4F863
:104030004E00A84230D9B4F84A30B4F848200DF107
:104040000A000DF1060100F04CF928B3BDF80A6032
:10405000002018E0E81A0130ADF80800B4F8480074
:10406000B04219D8B4F84A00B04215D9B4F84E306D
:10407000B4F84C2002A80DF1060100F032F958B155
:10408000BDF808500120216BBDF806308F68009004
:10409000204631462A46B847FEBD000010B5034C05
:1040A0004460BDE8104000F049B900BFB1480008C5
:1040B000F0B5059D84460026AA4288BF0126BCF8BB
:1040C0004C700020AF424FF0000538BF0125BCF80E
:1040D0004E4006EA0507944288BF46EA0507012FCD
:1040E00011D10022994288BF0122BCF848409C426D
:1040F00038BF0120BCF84A4002EA00038C4288BF66
:1041000042EA00031846F0BD10B5044600F034FB47
:104110002046BDE8104000F094BB10B50446806D09
:10412000884208BF10BD04F17400A16500F0EEFAEA
:104130002046BDE8104000F055B880F87010704778
:1041400080F86D10704700000149C165704700BFDD
:10415000A94300080249C0E91411016B49680847E6
:104160000000FFFFB0B50025044680F8915080F8AC
:104170006D5080F8395080F838204163C3628565FE
:1041800040F20110A4F89200049884F88D50206346
:104190000168204688472046FFF7DCFF2046FFF7EE
:1041A000D3FF84F87050B0BD7CB514460D460A4963
:1041B0000A4A00932346064600F04FFB0DF1070024
:1041C00000F09EFA9DF80720054B01463046009509
:1041D000FFF7C8FF7CBD00BFC94A00086549000859
:1041E0008746000810B5816DC9B190F9812080F82B
:1041F0008E2090F9821080F88F1090F88D3073B176
:10420000012B0DD190F983309A42B8BF80F88E30DF
:1042100090F984209142C4BF80F88F2010BD10BD5A
:1042200090F97E4090F980301C449442C8BF80F8D9
:104230008E409942C8BF80F88F3010BD022B06D047
:10424000012B06D0002B14BF1044084402E0401A92
:1042500000E0801A80B27047022B06D0012B06D0F6
:10426000002B14BF401A104402E0801A00E00844FA
:1042700080B270471CB50446B0F85230B0F85420F4
:10428000B0F85010B0F8560000902046FFF710FF2D
:1042900018B3012084F88C00B4F85000B4F848102A
:1042A000814238BFA4F84800B4F85200B4F84A106C
:1042B000814288BFA4F84A00B4F85400B4F84C1006
:1042C000814238BFA4F84C00B4F85600B4F84E1040
:1042D000814288BFA4F84E001CBD002084F88C00E9
:1042E0001CBDF0B505880C886619B4B2B44203D081
:1042F0009D4234BF5E1E154600249D420CD2B7B2CB
:10430000974209D9954238BF154605809F4288BF1C
:104310001E46701B012408802046F0BD7CB5C58F69
:10432000C46A069E521B92B20096A0477CBD1CB583
:10433000049C0094FFF7F2FF1CBD00002DE9F0473C
:104340001C4690468946074600F066FC4FF6FE760E
:10435000701C4FF0000A85B221787A683846904781
:10436000A8421DD003460134B042F5D01FFA89F1AE
:104370001FFA88F23846FFF707FE97F870100329F6
:104380000CD8DFE801F002040609814406E080440D
:1043900004E0A9EB000901E0A8EB00088244DBE798
:1043A0001FFA8AF0BDE8F0870020704710B50C4670
:1043B00000F00AF8611EC9B24FF0807202FA01F1F2
:1043C000A0EB116040B210BD70B5057B04686B189E
:1043D0002278DEB2EA40082E09D3661C0660C5F1D9
:1043E00008056478EDB2AC40D2B22243083B0373B7
:1043F0004FF0FF30884022EA0000C0B270BD0000DC
:104400002DE9FE4F044600F026F994F87A1004F1E5
:104410006005444E94F96BB02846B04794F87B1081
:1044200082462846B04794F87C1007462846B04795
:1044300094F96A808146B8F1010F6FDB0BEB07003E
:10444000404294F8707046B2B4F864005146324667
:104450003B46CDF80890FFF7F1FEA4F864008146D2
:10446000B4F86600514632463B46FFF7F5FE032F8F
:10447000A4F8660008D8DFE807F0020A111900EB7B
:104480000B0109EB080316E04B46014613E009F166
:10449000010300EB0801A3EB0B090CE0411C09F13F
:1044A0000103A1EB0B00A3EB080904E0411C09EB9D
:1044B0000B03A1EB080089B200911FFA89F182B2C7
:1044C0009BB22046FFF7F4FDDDF8089030B30020E2
:1044D000A4F8680094F876102846FFF775FF94F862
:1044E000771006462846FFF76FFF074620463146FD
:1044F000002200F019F820463946012200F014F895
:1045000028460121FFF760FF0028EFD194F96900E8
:104510005845DFDB94F86E0084F892004846BDE809
:10452000FE8F00BFAD4300082DE9F04F87B0044671
:104530008A466F3094F8689094F86910019004F1FD
:104540006E000492039094F87070B4F864004FFA0F
:1045500089F54EB2B4F866B094F86A80069129469F
:1045600032463B46FFF76AFE0590584629463246DA
:104570003B46FFF771FEA8EB090502465FFA85FB93
:104580005FFA8AF62846CDF808905E4538BF504657
:1045900004990029039909D00978C3B284F89210CC
:1045A000059920460097FFF720FD04E094F86D1070
:1045B00000290199F0D05E4506D30699AAEB050AB9
:1045C00001314FF00009BEE7069884F869000298AF
:1045D000504484F8680007B0BDE8F08F70B50C4611
:1045E000816DFF2C01F1170104D8612C1ED3B0F8A6
:1045F000880022E0B0F88A000E18354628460021CF
:1046000000F025F806442846022100F020F8043581
:10461000A042F3D303E0A0420DD0B0780644307836
:10462000717841EA00200028F5D10EE0412C05D335
:10463000B0F8860001E0F01C70BD0144487820B15C
:104640000A78A242F9D1881C70BD002070BD405A82
:1046500000BA000C704710B5044644F8601F0020F3
:104660002073217E2046FFF7AFFEA072617E2046B8
:10467000FFF7AAFEE07294F83200A073B0FA80F05F
:104680004009E07310BDF0B590F8926002F00707A2
:104690004FF0010C0CFA07F4751E18BF2546022EC8
:1046A00028BF0024066822F00702367CD0F834E0E8
:1046B000724392B272441144059ABAB10A78013B2E
:1046C00022436A400A707A1C12F0070702D06D007C
:1046D000640008E090F89220012A18BF654698BF50
:1046E0006446428F11441A04E8D107E00878013B80
:1046F0002043684001F8010B1804F7D1F0BD000019
:104700000821017000487047887F002070B504467A
:104710000878184E207048780D4660708878A07030
:10472000C878E07008792071487960718879A07143
:10473000C879E071087A2072487A6072887AA0722B
:10474000C87AE072087B2073487B6073887BA07313
:10475000C87BE073087C207408461121B047608252
:1047600028461321B047A08228461521B047E08291
:1047700070BD00BF4F4600082DE9FC47044690F885
:10478000388090F839600068002590F81190012772
:104790004FF6F87A02E0206801370835037C616B38
:1047A00005FB03F000EA0A0008440090F2B220463C
:1047B000002100F031F80136F0B2484538BF4745D6
:1047C000E9D3BDE8FC8710B590F83810CA0082879D
:1047D00090F83920D300C387A0F8403003685C69A3
:1047E00044641C7C5B7CE400448754189C4288BF72
:1047F000991AC90001EBC201A0F8421010BDFFF7E1
:10480000E2BF0021A0F84810B0F84410A0F84A1008
:10481000016CC164FFF72EBD1CB58DF806208DF824
:10482000051004998DF80430009184686B460F21BF
:104830000122A0471CBDD0F808C00A210022002395
:104840006047D0F808C01021002200236047D0F84C
:1048500008C00A460B2100236047F8B51C461546E0
:104860000E46074600F00AF80698C7E90265C7E950
:1048700004403846BDE8F84000F014B80021084A6A
:10488000FF2380F82610016080F828304FF47F4322
:10489000A0F82330C0E90222C0E9042281617047F8
:1048A000E14B0008D0F808C009210022002360472E
:1048B0004FF6FF7011B10A2918BF08467047000073
:1048C000B0B5A1F1170504460020092D0CD8DFE88A
:1048D00005F0050E1C0D0D0D0D0D0D2A1548194680
:1048E0000A23FCF799F922E0142920D0B0BD2068F2
:1048F00049210278204600F075F9206865698278C0
:1049000020462C210023A84711E020686569C27861
:1049100020462C210023A8472068492142782046C0
:1049200000F060F903E0BB482021FBF7D5FD012032
:10493000B0BD00BF34020020E0B58DF807100DF1C6
:104940000702012100F001F88CBDD0F810C0134619
:104950000A4617216047D0F810C00A4620210023DC
:1049600060470000F8B50546A1F11400052811D8EC
:104970000F461E461446DFE800F01303030F13131F
:1049800028460021FFF7E7FF28462146FFF7D4FF1E
:104990000120F8BD0020F8BD28460121FFF7DBFF0C
:1049A000D5F810C0284639462246334601B0BDE846
:1049B000F0406047D0F80CC0192100220023604766
:1049C000D0F80CC00A46162100236047D0F80CC06E
:1049D0000A46152100236047D0F80CC013460A464A
:1049E00017216047F8B50E4604460DF1030537461A
:1049F00017F8011BA1F11500022811D3A1F118002D
:104A0000022816D317291BD0FE2918BFF8BD7278CB
:104A1000204629218DF8032000F0E4F80236E6E76D
:104A2000727820468DF80320E7680023B8470236E5
:104A3000DDE7E668204600220023B0473E46D6E781
:104A4000707801218DF8030020462A46FFF7C4FF45
:104A50000236CCE7D0F80CC01821002200236047B2
:104A6000B0B545692821002200230446A847E5681F
:104A70002046142100220023A8470F4D20464B2139
:104A80000122A8472068292102792046A84720460C
:104A90004B210022A8472068292102792046A847F7
:104AA00020464B210122A84720682921427920462F
:104AB0002B46BDE8B0401847E54B00080160897CF3
:104AC00080F8221070470000B0B50D46044600F093
:104AD0001BF808B10120B0BD092D09D00A2D0CD159
:104AE0002046FFF7BDFF07492046FFF77BFFF1E7B0
:104AF00003492046FFF7E2FFECE70020B0BD00BF0E
:104B00005C7600081B7600082DE9F0410B3904465D
:104B10000020042959D81546DFE801F003570B148B
:104B20002000002D0CBF2D492B492046FFF75AFFCE
:104B30004AE0002D40D026492046FFF753FF206869
:104B4000C07C3FE02046FFF785FF20468121FFF72C
:104B50003DFF20462946FFF733FF29E020461E4649
:104B6000FFF778FF96F8058094F8227020464021E0
:104B7000FFF72CFF07EBC807F8B2000900F110019E
:104B80002046FFF723FF07F00F012046FFF718FF2D
:104B9000B07940F0B0012046FFF712FF307932685B
:104BA000C000C1B22046FFF717FF013D2806F5D12E
:104BB0002046FFF7FFFE07E006492046FFF712FFF9
:104BC0002068807C84F822000120BDE8F08100BFCD
:104BD000147600080D760008557600085076000817
:104BE00000207047D0F814C00023604780B54A29E0
:104BF00007D0492908D029290AD11046FEF7B1FC6F
:104C000006E00448202101E002481021FBF764FC83
:104C1000012080BD00100140002180F8261070475F
:104C200080B5FCF7AFFB002080BD80B5FEF776FBBA
:104C3000002080BD0FB4084B10B504A902AA039848
:104C400000F01CF8044602A9002000F0C1F820463C
:104C500010BC5DF814FB0000D14D000802E008C84C
:104C6000121F08C1002AFAD170477047002001E0E6
:104C700001C1121F002AFBD1704700002DE9FF4F30
:104C800089B09B460446002506E025280BD05A46ED
:104C90000B999047641C6D1C20780028F5D10DB04D
:104CA0002846BDE8F08F0027B8460122474900E0BA
:104CB000074314F8013F203B02FA03F00842F7D102
:104CC00020782E2819D114F8010F47F004072A285C
:104CD0000ED06FF02F022078A0F1300109290CD8F6
:104CE00008EB880102EB410100EB0108641CF2E7CC
:104CF0000A98641C50F8048B0A9020780028CED0C3
:104D0000642808D0692806D075281ED05A460B9909
:104D100090476D1C58E00A994FF00A0901C90A91A1
:104D2000002802DA40422D2102E0390504D52B216A
:104D30008DF82010012103E0F90704D02021F7E7C6
:104D40008A4608AE0DE00021FAE70A994FF00A09F9
:104D500001C90A91F7E74946FBF7B4FA303106F882
:104D6000011D0028F7D1ADEB060000F120097807FE
:104D700001D44FF00108C84502DDA8EB090000E0AE
:104D800000208046002706E008A85A46C05D0B991F
:104D900090476D1C7F1C5745F6DB04E030205A46D7
:104DA0000B9990476D1CB8F10001A8F10108F5DCE2
:104DB00005E016F8010B5A460B9990476D1CB9F1A6
:104DC0000001A9F10109F4DC641C65E70928010070
:104DD0000A68531C0B601070704700000000000050
:104DE0000000010203040607080900000000010298
:104DF00003040000010002000100030001000200A2
:104E00000100040001000200010003000100020093
:104E10000100050001000200010003000100020082
:104E20000100040001000200010003000100020073
:104E30000100060001000200010003000100020061
:104E40000100040001000200010003000100020053
:104E50000100050001000200010003000100020042
:104E60000100040001000200010003000100020033
:104E70000100070001000200010003000100020020
:104E80000100040001000200010003000100020013
:104E90000100050001000200010003000100020002
:104EA00001000400010002000100030001000200F3
:104EB00001000600010002000100030001000200E1
:104EC00001000400010002000100030001000200D3
:104ED00001000500010002000100030001000200C2
:104EE00001000400010002000100030001000200B3
:104EF000010068656C6C6F007361792068656C6C8B
:104F00006F20776F726C640076657273696F6E00E4
:104F100073686F772052542D5468726561642076EF
:104F2000657273696F6E20696E666F726D61746908
:104F30006F6E005F5F636D645F76657273696F6E3D
:104F40000073686F772052542D5468726561642035
:104F500076657273696F6E20696E666F726D6174CB
:104F6000696F6E006C6973745F7468726561640068
:104F70006C69737420746872656164005F5F636D4F
:104F8000645F6C6973745F746872656164006C69F6
:104F9000737420746872656164006C6973745F7304
:104FA000656D006C6973742073656D6170686F72F4
:104FB0006520696E2073797374656D005F5F636D42
:104FC000645F6C6973745F73656D006C69737420E2
:104FD00073656D6170686F726520696E2073797397
:104FE00074656D006C6973745F6D61696C626F7874
:104FF000006C697374206D61696C20626F78206940
:105000006E2073797374656D005F5F636D645F6CB0
:105010006973745F6D61696C626F78006C69737439
:10502000206D61696C20626F7820696E20737973DE
:1050300074656D006C6973745F74696D6572006C82
:105040006973742074696D657220696E2073797359
:1050500074656D005F5F636D645F6C6973745F742A
:10506000696D6572006C6973742074696D65722076
:10507000696E2073797374656D006C697374006C6C
:1050800069737420616C6C2073796D626F6C206938
:105090006E2073797374656D005F5F636D645F6824
:1050A000656C700052542D54687265616420736899
:1050B000656C6C2068656C702E005F5F636D645F6B
:1050C0007073004C69737420746872656164732036
:1050D000696E207468652073797374656D2E005F46
:1050E0005F636D645F667265650053686F772074F7
:1050F0006865206D656D6F727920757361676520D5
:10510000696E207468652073797374656D2E006C08
:105110006973745F6D656D006C697374206D656D86
:105120006F727920757361676520696E666F726D45
:105130006174696F6E00317320636F756E74657290
:10514000006C65640073637265656E00252D2A2E00
:10515000732070726920207374617475732020202D
:1051600020202073702020202020737461636B2026
:1051700073697A65206D61782075736564206C654C
:105180006674207469636B20206572726F720A0006
:1051900020696E69742020200020636C6F73652085
:1051A0002000207265616479202000252D2A2E2A96
:1051B00073203078253038782030782530387820C2
:1051C000002073757370656E64002072756E6E6971
:1051D0006E67005F5F636D645F00080025630068B1
:1051E000617264206661756C74206F6E2068616EF8
:1051F000646C65720D0A0D0A006861726420666154
:10520000756C74206F6E207468726561643A202535
:10521000730D0A0D0A006D656D206D616E61676525
:10522000206661756C743A0A007573616765206663
:1052300061756C743A0A00627573206661756C74EE
:105240003A0A005343422D3E424641523A253038F5
:10525000580A005343422D3E4D4D41523A253038B5
:10526000580A006661696C656420766563746F72C4
:105270002066657463680A006465627567206576F8
:10528000656E740A007230303A20307825303878F4
:105290000A007230313A203078253038780A0072AE
:1052A00030323A203078253038780A007230333A7C
:1052B000203078253038780A007230343A2030783F
:1052C000253038780A007073723A203078253038EB
:1052D000780A00494E5650432000554E414C4947EC
:1052E0004E45442000494E565354415445200044F5
:1052F00041434356494F4C20004941434356494F8F
:105300004C200044495642595A45524F20004E4FB6
:10531000435020004D53544B45525220004D554EA2
:1053200053544B4552522000494D50524543495326
:105330004552522000494255534552522000554E85
:10534000444546494E53545220005343425F43461E
:1053500053525F424653523A30782530325820003B
:105360005343425F434653525F4D4653523A30785F
:105370002530325820005343425F434653525F5515
:105380004653523A3078253032582000FF47000803
:10539000034800082F430008BF0205040506010466
:1053A00006152600F918FA19F904E10AAE22582068
:1053B0000BD51CF587FFFF7F17002119D51CF5873A
:1053C000532316588BF417879CFB0011689E0D928F
:1053D0000F2F002224D51CF58743A288450651646F
:1053E000104506516410450651641045065164107D
:1053F0004506F9F0FF13002343D51CF587EB838C9A
:105400003506596390350659638C45C6380F8CF1C3
:10541000C018171A83AC31C81A83AC31C62263A0F6
:1054200007C478608C07C61964AC31C81A83AC31E4
:10543000061B632C32C622637C78243BD51CF5877F
:105440005B2412689A520C91900C11448843041109
:10545000011141560984654D6B8925464259449096
:10546000450431811041CA182490F240302EAD56C7
:1054700022F56114002541D51CF587DBE410720A82
:10548000298810A204294490500A112410E3100A1C
:10549000049D4016110412582015956AA81D344821
:1054A00021810C524820831022C820848C44483922
:1054B0008598F2E136002641D51CF587EBC621A67A
:1054C0005411441142122124114212216311411836
:1054D0006AC799861A0984884206114590420219C2
:1054E000A42042CC21E494428C3145A4F280286966
:1054F00090634AF8701B002710D51CF5875B429219
:10550000487F1FFE7F06002823D51CF5877B239646
:10551000675C793548450A92487F9244124B24B122
:105520008A241A686289448A02002925D51CF587D5
:10553000BD210BB46215492C9148122949227D9056
:10554000440A125820058BB35E8143860F0E002A51
:1055500029D51CF5879F2591B6C620439812862829
:10556000E40161DC2AD038C488208A0C920A2188A0
:1055700098A1C2111F7E14002B18D51CF5875F203F
:1055800091BEF580200F08F2805024D2F7E1770118
:105590002C15D51CF587FFFF9D110B34CFC0124988
:1055A0009C228963012D0ED51CF587FFCD67BE0FA8
:1055B000FF97002E11D51CF587FFFF2281E6599039
:1055C0007CB805002F29D51CF58783818E484112B0
:1055D000491C91C411294822812412482281241295
:1055E0004822812412482281448E0FDB003043D5AB
:1055F0001CF587FBC5A5B592092591420E31C51052
:10560000530C29A610630A29231042C81084903134
:105610000621648C41081183506114428E21A51823
:10562000628A21A618724821C80493D64AAE7C78B3
:105630003116D51CF58717C8330D2DC548202C1001
:1056400012E9FFBF0F0F3221D51CF587F3C625C520
:105650005211E61043904024D2208904D25E05E91D
:105660002249C1FC3E9C063328D51CF587F3C5258D
:10567000C55211260953220D9276186AA8A55845DD
:105680001A0A889C61C831C220A654331F5E0034B8
:105690002FD51CF587474624B07AC65D6D04C248F5
:1056A000206C08B2C6206B0CA206218910924621FC
:1056B000E881501E08E581E048A4F7E13A0035256D
:1056C000D51CF587D3EE788744BAB8144B0D9152A8
:1056D000CE3844924867C621861C624E38A7A5D5AD
:1056E000CC87073635D51CF587FBC5A5B5920905CE
:1056F000952212892352C1A8861A32A39C52C8A1AE
:105700000C39C490430C39C4904319724821A988BC
:1057100092D64AAE7C7801003721D51CF587D3EEAE
:105720007871441247A4E288248E48C511A9382212
:105730000549A42089E4C323003839D51CF587F333
:10574000A629C552110591520E31E410430E3104C1
:105750001142521164298618094511421031141A58
:1057600086205208228520528A21C708839852CD6C
:105770007C783935D51CF587F3C5A5B592092591F7
:10578000420E31E450861C62C821861C624A29A759
:105790000C731C6ACA0412A9382249A2905482418F
:1057A0006CA5663E3C01003A16D51CF587FF1A81B0
:1057B000E659907C788940F32C483EDC023B1CD5AE
:1057C0001CF587FF1A81E659907C7869C402CD33B5
:1057D000B04412A748E29881013C1BD51CF5879F75
:1057E0000A72C0E20EBBE70A34F08206DE6089640A
:1057F0008A0F0F023D1BD51CF587BFFD80200F08C7
:10580000F280F830F880200F08F280F8F02F023E86
:1058100019D51CF5872F073A6481E8E17B5633EDF3
:10582000B03B671E89E2C3073F25D51CF58753A50A
:1058300029C59011E6104390400405442205092C27
:10584000AF8254A43E240934CF82E4C3034043D53D
:105850001CF587FBA629C59011E55085A45186410A
:105860006410350659630C23C818A21032862085AF
:105870008C214821630842CA18A304338860648CD1
:1058800045C8288110224B3C8224A6163B1FAE033C
:105890004138D51CF58717C21C728A051668DC08CA
:1058A000C38D301A09848D31D818449141D42843CE
:1058B00031D4903BE310430E312311421221449125
:1058C00031161164910F9701423AD51CF587CB4BE5
:1058D00035E40E21C790530A41A410440A41A49014
:1058E000430C21C7B8D3D033E49442102924114289
:1058F00012212411421221049142CA29CFB8C33E79
:105900009C07432AD51CF587FBA6A9D4CE11C61443
:10591000434A418490240C8124D24F92486241E250
:105920001443CC11E634A59AF9701E00443ED51CF0
:10593000F587CB4B35E40E21C710530C39A5104425
:105940000A41A4904408498490440849849044083A
:10595000498490440849A310440A41A490430C315F
:10596000C510624E432CA90F2F004522D51CF58788
:10597000CB0F84F240280F8442227DD11DEF904846
:10598000BFF840280F84F240F8701A004616D51C64
:10599000F587D3CF7C8644FA62431D2291FEFBF04B
:1059A0000C004732D51CF587FBC525D58E19E5506F
:1059B00085A061480A67447A0511521021051192A9
:1059C000082189148248218818728839C21C9714CA
:1059D0003B1FCE034846D51CF587CB0491421029C6
:1059E0000491421029049142102904914210290483
:1059F000914210290F84F240280F8442102904910B
:105A00004210290491421029049142102904914224
:105A1000102904914210F9701A004913D51CF5871A
:105A2000D30D758D44FAFFC71AEA3E1C074A1CD5F0
:105A30001CF587EB2C718D44FAFF5430240D525025
:105A40001145AD955CF9F006004B40D51CF587C3B8
:105A50000415421029E410431D5208228424328880
:105A600022A22812CA4A0CB5C41223822C328822E0
:105A7000A324424822852052CA21A618728821A751
:105A800014820A21897C380D004C11D51CF587CB76
:105A900024D2FFFFC567BE0FB7014D4ED51CF58759
:105AA000C3630D4212212411524E21E514628A2152
:105AB000A61872C621671C42C2140821610A84100C
:105AC0005104214414410819631042C6188410126D
:105AD00008950821891092082189109208218910BF
